:020000040800F2
:100000000050002075430008911A0008931A000858
:10001000951A0008971A0008991A000800000000B5
:100020000000000000000000000000009B1A000813
:100030009D1A0008000000009F1A0008A11A00087D
:10004000BD430008BD430008BD430008BD43000890
:10005000BD430008BD430008BD430008BD43000880
:10006000BD430008BD430008BD430008BD43000870
:10007000BD430008BD430008BD430008BD43000860
:10008000BD430008BD430008BD430008BD43000850
:10009000BD430008BD430008BD430008BD43000840
:1000A000BD430008BD430008BD430008BD43000830
:1000B000BD430008BD430008BD430008BD43000820
:1000C000BD430008BD430008BD430008BD43000810
:1000D000BD430008BD430008BD430008BD43000800
:1000E000BD430008BD430008BD43000800000000F8
:1000F0000000000000000000000000000000000000
:0C01000000000000000000005FF808F1A3
:1001100010B5054C237833B9044B13B10448AFF341
:1001200000800123237010BDC009002000000000E2
:10013000CCAE000808B5034B1BB103490348AFF32D
:10014000008008BD00000000C4090020CCAE0008FB
:1001500081F0004102E000BF83F0004330B54FEA78
:1001600041044FEA430594EA050F08BF90EA020FE5
:100170001FBF54EA000C55EA020C7FEA645C7FEA78
:10018000655C00F0E2804FEA5454D4EB5555B8BF9B
:100190006D420CDD2C4480EA020281EA030382EA0C
:1001A000000083EA010180EA020281EA0303362D9E
:1001B00088BF30BD11F0004F4FEA01314FF4801C71
:1001C0004CEA113102D0404261EB410113F0004F83
:1001D0004FEA03334CEA133302D0524263EB43033A
:1001E00094EA050F00F0A780A4F10104D5F1200ED8
:1001F0000DDB02FA0EFC22FA05F2801841F1000133
:1002000003FA0EF2801843FA05F359410EE0A5F106
:1002100020050EF1200E012A03FA0EFC28BF4CF037
:10022000020C43FA05F3C01851EBE37101F00045ED
:1002300007D54FF0000EDCF1000C7EEB00006EEBFA
:100240000101B1F5801F1BD3B1F5001F0CD3490884
:100250005FEA30004FEA3C0C04F101044FEA4452DB
:1002600012F5800F80F09A80BCF1004F08BF5FEA62
:10027000500C50F1000041EB045141EA050130BD42
:100280005FEA4C0C404141EB0101013C28BFB1F554
:10029000801FE9D291F0000F04BF01460020B1FA9F
:1002A00081F308BF2033A3F10B03B3F120020CDA72
:1002B0000C3208DD02F1140CC2F10C0201FA0CF050
:1002C00021FA02F10CE002F11402D8BFC2F1200CB5
:1002D00001FA02F120FA0CFCDCBF41EA0C0190406B
:1002E000E41AA2BF01EB0451294330BD6FEA0404B4
:1002F0001F3C1CDA0C340EDC04F11404C4F120029F
:1003000020FA04F001FA02F340EA030021FA04F3B0
:1003100045EA030130BDC4F10C04C4F1200220FA07
:1003200002F001FA04F340EA0300294630BD21FA45
:1003300004F0294630BD94F0000F83F4801306BF0B
:1003400081F480110134013D4EE77FEA645C18BFFF
:100350007FEA655C29D094EA050F08BF90EA020F96
:1003600005D054EA000C04BF1946104630BD91EA8E
:10037000030F1EBF0021002030BD5FEA545C05D191
:100380004000494128BF41F0004130BD14F58004D0
:100390003CBF01F5801130BD01F0004545F0FE4144
:1003A00041F470014FF0000030BD7FEA645C1ABF79
:1003B000194610467FEA655C1CBF0B46024650EAB0
:1003C000013406BF52EA033591EA030F41F40021DC
:1003D00030BD00BF90F0000F04BF0021704730B562
:1003E0004FF4806404F132044FF000054FF0000137
:1003F00050E700BF90F0000F04BF0021704730B5F8
:100400004FF4806404F1320410F0004548BF4042CC
:100410004FF000013EE700BF42004FEAE2014FEA21
:1004200031014FEA02701FBF12F07F4393F07F4FFC
:1004300081F06051704732F07F4208BF704793F0FF
:100440007F4F04BF41F40021704730B54FF4607412
:1004500001F0004521F000411CE700BF50EA010215
:1004600008BF704730B54FF000050AE050EA0102BE
:1004700008BF704730B511F0004502D5404261EB2E
:1004800041014FF4806404F132045FEA915C3FF46F
:10049000D8AE4FF003025FEADC0C18BF03325FEA0C
:1004A000DC0C18BF033202EBDC02C2F1200300FABD
:1004B00003FC20FA02F001FA03FE40EA0E0021FAE2
:1004C00002F11444BDE600BF4FEA410212F50012EA
:1004D00015D211D56FF47873B3EB625212D94FEA8B
:1004E000C12343F0004343EA505311F0004F23FA75
:1004F00002F018BF404270474FF00000704750EACA
:10050000013005D111F0004008BF6FF00040704786
:100510004FF00000704700BF4A0011D212F50012E0
:1005200011D20DD56FF47873B3EB62520ED44FEA4B
:10053000C12343F0004343EA505323FA02F07047CB
:100540004FF00000704750EA013002D14FF0FF3009
:1005500070474FF0000070474FEA4102B2F1E043AC
:1005600024BFB3F5001CDCF1FE5C0DD901F0004C9A
:100570004FEAC0024CEA5070B2F1004F40EB8300EA
:1005800008BF20F00100704711F0804F21D113F116
:100590003872BCBF01F00040704741F480114FEA4F
:1005A0005252C2F11802C2F1200C10FA0CF320FAD8
:1005B00002F018BF40F001004FEAC1234FEAD323F5
:1005C00003FA0CFC40EA0C0023FA02F34FEA43035F
:1005D000CCE77FEA625307D150EA01331EBF4FF0E8
:1005E000FE4040F44000704701F0004040F0FE4003
:1005F00040F40000704700BF80F0004002E000BF00
:1006000081F0004142001FBF5FEA410392EA030FFD
:100610007FEA226C7FEA236C6AD04FEA1262D2EB47
:100620001363C1BFD218414048404140B8BF5B424C
:10063000192B88BF704710F0004F40F4000020F0E5
:100640007F4018BF404211F0004F41F4000121F0FB
:100650007F4118BF494292EA030F3FD0A2F1010245
:1006600041FA03FC10EB0C00C3F1200301FA03F183
:1006700000F0004302D5494260EB4000B0F5000FA6
:1006800013D3B0F1807F06D340084FEA310102F165
:100690000102FE2A51D2B1F1004F40EBC25008BF17
:1006A00020F0010040EA03007047490040EB0000E1
:1006B000013A28BFB0F5000FEDD2B0FA80FCACF1E2
:1006C000080CB2EB0C0200FA0CF0AABF00EBC2500F
:1006D00052421843BCBFD0401843704792F0000FFD
:1006E00081F4000106BF80F400000132013BB5E750
:1006F0004FEA41037FEA226C18BF7FEA236C21D0C6
:1007000092EA030F04D092F0000F08BF084670472A
:1007100090EA010F1CBF0020704712F07F4F04D1F8
:10072000400028BF40F00040704712F100723CBF0B
:1007300000F50000704700F0004343F0FE4040F435
:10074000000070477FEA226216BF08467FEA2363F3
:100750000146420206BF5FEA412390EA010F40F4DE
:10076000800070474FF0000304E000BF10F000432A
:1007700048BF40425FEA000C08BF704743F0964311
:1007800001464FF000001CE050EA010208BF70472C
:100790004FF000030AE000BF50EA010208BF7047B3
:1007A00011F0004302D5404261EB41015FEA010CC8
:1007B00002BF84460146002043F0B64308BFA3F1C0
:1007C0008053A3F50003BCFA8CF2083AA3EBC253A2
:1007D00010DB01FA02FC634400FA02FCC2F12002C1
:1007E000BCF1004F20FA02F243EB020008BF20F0F8
:1007F0000100704702F1200201FA02FCC2F120025E
:1008000050EA4C0021FA02F243EB020008BF20EA52
:10081000DC7070474FF0FF0C1CEAD0521EBF1CEA80
:10082000D15392EA0C0F93EA0C0F6FD01A4480EA6E
:10083000010C400218BF5FEA41211ED04FF0006357
:1008400043EA501043EA5111A0FB01310CF0004083
:10085000B1F5000F3EBF490041EAD3715B0040EAA9
:10086000010062F17F02FD2A1DD8B3F1004F40EB79
:10087000C25008BF20F00100704790F0000F0CF04C
:10088000004C08BF49024CEA502040EA51207F3A10
:10089000C2BFD2F1FF0340EAC250704740F40000EB
:1008A0004FF00003013A5DDC12F1190FDCBF00F0DC
:1008B00000407047C2F10002410021FA02F1C2F18A
:1008C000200200FA02FC5FEA310040F1000053EA26
:1008D0004C0308BF20EADC70704792F0000F00F074
:1008E000004C02BF400010F4000F013AF9D040EA7A
:1008F0000C0093F0000F01F0004C02BF490011F40E
:10090000000F013BF9D041EA0C018FE70CEAD1530B
:1009100092EA0C0F18BF93EA0C0F0AD030F0004C8B
:1009200018BF31F0004CD8D180EA010000F000403F
:10093000704790F0000F17BF90F0004F084691F0FD
:10094000000F91F0004F14D092EA0C0F01D1420237
:100950000FD193EA0C0F03D14B0218BF084608D100
:1009600080EA010000F0004040F0FE4040F400004A
:10097000704740F0FE4040F4400070474FF0FF0CDD
:100980001CEAD0521EBF1CEAD15392EA0C0F93EA24
:100990000C0F69D0A2EB030280EA010C49024FEA76
:1009A000402037D04FF0805343EA111143EA10132F
:1009B0000CF000408B4238BF5B0042F17D024FF4E7
:1009C000000C8B4224BF5B1A40EA0C00B3EB510FC2
:1009D00024BFA3EB510340EA5C00B3EB910F24BFAB
:1009E000A3EB910340EA9C00B3EBD10F24BFA3EB30
:1009F000D10340EADC001B0118BF5FEA1C1CE0D1F8
:100A0000FD2A3FF650AF8B4240EBC25008BF20F0AA
:100A1000010070470CF0004C4CEA50207F32C2BFFE
:100A2000D2F1FF0340EAC250704740F400004FF09B
:100A30000003013A37E792F0000F00F0004C02BFCC
:100A4000400010F4000F013AF9D040EA0C0093F096
:100A5000000F01F0004C02BF490011F4000F013BF0
:100A6000F9D041EA0C0195E70CEAD15392EA0C0F58
:100A700008D142027FF47DAF93EA0C0F7FF470AF90
:100A8000084676E793EA0C0F04D14B023FF44CAFD3
:100A900008466EE730F0004C18BF31F0004CCAD168
:100AA00030F000427FF45CAF31F000437FF43CAFA4
:100AB0005FE700BF4FF0FF3C06E000BF4FF0010CC6
:100AC00002E000BF4FF0010C4DF804CD4FEA4002A8
:100AD0004FEA41037FEA226C18BF7FEA236C11D0F2
:100AE00001B052EA530C18BF90EA010F58BFB2EBA5
:100AF000030088BFC81738BF6FEAE17018BF40F025
:100B0000010070477FEA226C02D15FEA402C05D1D8
:100B10007FEA236CE4D15FEA412CE1D05DF8040B5D
:100B2000704700BF844608466146FFE70FB5FFF7F0
:100B3000C9FF002848BF10F1000F0FBD4DF808EDA8
:100B4000FFF7F4FF0CBF012000205DF808FB00BF99
:100B50004DF808EDFFF7EAFF34BF012000205DF8F3
:100B600008FB00BF4DF808EDFFF7E0FF94BF012040
:100B700000205DF808FB00BF4DF808EDFFF7D2FF3D
:100B800094BF012000205DF808FB00BF4DF808ED80
:100B9000FFF7C8FF34BF012000205DF808FB00BF4D
:100BA0004FEA4002B2F1FE4F0FD34FF09E03B3EB7A
:100BB00012620DD94FEA002343F0004310F0004FBA
:100BC00023FA02F018BF404270474FF00000704710
:100BD00012F1610F01D1420205D110F0004008BFAF
:100BE0006FF0004070474FF000007047844641EAC4
:100BF000000313F0030349D1403A23D30B68036089
:100C00004B6843608B688360CB68C3600B6903618A
:100C10004B6943618B698361CB69C3610B6A036272
:100C20004B6A43628B6A8362CB6AC3620B6B03635A
:100C30004B6B43638B6B8363CB6BC363403040313F
:100C4000403ADBD230320BD30B6803604B68436011
:100C50008B688360CB68C36010301031103AF3D2D8
:100C60000C3205D351F8043B40F8043B043AF9D266
:100C7000043208D0D2071CBF11F8013B00F8013B39
:100C800001D30B8803806046704700BF082A13D346
:100C90008B07B1D010F00303AED0C3F10403D21A16
:100CA000DB071CBF11F8013B00F8013BA4D331F86E
:100CB000023B20F8023B9FE7043AD9D3013A11F8EE
:100CC000013B00F8013BF9D20B7803704B7843707D
:100CD0008B7883706046704770B54FF0FF0C4CF412
:100CE000E06C1CEA11541DBF1CEA135594EA0C0F6A
:100CF00095EA0C0F00F0DEF82C4481EA030621EAA5
:100D00004C5123EA4C5350EA013518BF52EA0335DF
:100D100041F4801143F4801338D0A0FB02CE4FF091
:100D20000005E1FB02E506F00042E0FB03E54FF0C1
:100D30000006E1FB03569CF0000F18BF4EF0010EB9
:100D4000A4F1FF04B6F5007F64F5407404D25FEAB5
:100D50004E0E6D4146EB060642EAC62141EA555168
:100D60004FEAC52040EA5E504FEACE2EB4F1FD0CAA
:100D700088BFBCF5E06F1ED8BEF1004F08BF5FEA28
:100D8000500E50F1000041EB045170BD06F00046DA
:100D900046EA010140EA020081EA0301B4EB5C0487
:100DA000C2BFD4EB0C0541EA045170BD41F480117F
:100DB0004FF0000E013C00F3AB8014F1360FDEBFA4
:100DC000002001F0004170BDC4F10004203C35DA80
:100DD0000C341BDC04F11404C4F1200500FA05F303
:100DE00020FA04F001FA05F240EA020001F00042A4
:100DF00021F0004110EBD37021FA04F642EB06011A
:100E00005EEA430E08BF20EAD37070BDC4F10C0443
:100E1000C4F1200500FA04F320FA05F001FA04F207
:100E200040EA020001F0004110EBD37041F10001F3
:100E30005EEA430E08BF20EAD37070BDC4F12005FE
:100E400000FA05F24EEA020E20FA04F301FA05F266
:100E500043EA020321FA04F001F0004121FA04F20E
:100E600020EA020000EBD3705EEA430E08BF20EADE
:100E7000D37070BD94F0000F0FD101F00046400018
:100E800041EB010111F4801F08BF013CF7D041EA9A
:100E9000060195F0000F18BF704703F0004652009E
:100EA00043EB030313F4801F08BF013DF7D043EA6F
:100EB0000603704794EA0C0F0CEA135518BF95EA25
:100EC0000C0F0CD050EA410618BF52EA4306D1D1AC
:100ED00081EA030101F000414FF0000070BD50EACB
:100EE000410606BF1046194652EA430619D094EA55
:100EF0000C0F02D150EA013613D195EA0C0F05D13F
:100F000052EA03361CBF104619460AD181EA030192
:100F100001F0004141F0FE4141F470014FF000004A
:100F200070BD41F0FE4141F4780170BD70B54FF0E5
:100F3000FF0C4CF4E06C1CEA11541DBF1CEA135565
:100F400094EA0C0F95EA0C0F00F0A7F8A4EB050447
:100F500081EA030E52EA03354FEA013100F088803E
:100F60004FEA03334FF0805545EA131343EA126307
:100F70004FEA022245EA111545EA10654FEA0026BC
:100F80000EF000419D4208BF964244F1FD0404F575
:100F9000407402D25B084FEA3202B61A65EB0305D1
:100FA0005B084FEA32024FF480104FF4002CB6EB8E
:100FB000020E75EB030E22BFB61A754640EA0C000E
:100FC0005B084FEA3202B6EB020E75EB030E22BF4E
:100FD000B61A754640EA5C005B084FEA3202B6EB8F
:100FE000020E75EB030E22BFB61A754640EA9C004E
:100FF0005B084FEA3202B6EB020E75EB030E22BF1E
:10100000B61A754640EADC0055EA060E18D04FEADB
:10101000051545EA16754FEA06164FEAC30343EA7B
:1010200052734FEAC2025FEA1C1CC0D111F4801F48
:101030000BD141EA00014FF000004FF0004CB6E741
:1010400011F4801F04BF01430020B4F1FD0C88BFE0
:10105000BCF5E06F3FF6AFAEB5EB030C04BFB6EBEB
:10106000020C5FEA500C50F1000041EB045170BDDE
:101070000EF0004E4EEA113114EB5C04C2BFD4EB0B
:101080000C0541EA045170BD41F480114FF0000E8F
:10109000013C90E645EA060E8DE60CEA135594EA0B
:1010A0000C0F08BF95EA0C0F3FF43BAF94EA0C0F0E
:1010B0000AD150EA01347FF434AF95EA0C0F7FF483
:1010C00025AF104619462CE795EA0C0F06D152EAD7
:1010D00003353FF4FDAE1046194622E750EA4106BB
:1010E00018BF52EA43067FF4C5AE50EA41047FF4CC
:1010F0000DAF52EA43057FF4EBAE12E74FF0FF3C31
:1011000006E000BF4FF0010C02E000BF4FF0010C01
:101110004DF804CD4FEA410C7FEA6C5C4FEA430C7A
:1011200018BF7FEA6C5C1BD001B050EA410C0CBFC9
:1011300052EA430C91EA030F02BF90EA020F00202B
:10114000704710F1000F91EA030F58BF994208BF92
:1011500090422CBFD8176FEAE37040F0010070474F
:101160004FEA410C7FEA6C5C02D150EA013C07D1A6
:101170004FEA430C7FEA6C5CD6D152EA033CD3D0F1
:101180005DF8040B704700BF8446104662468C46EB
:101190001946634600E000BF01B5FFF7B7FF00281E
:1011A00048BF10F1000F01BD4DF808EDFFF7F4FF47
:1011B0000CBF012000205DF808FB00BF4DF808EDD2
:1011C000FFF7EAFF34BF012000205DF808FB00BFF5
:1011D0004DF808EDFFF7E0FF94BF012000205DF817
:1011E00008FB00BF4DF808EDFFF7CEFF94BF0120CC
:1011F00000205DF808FB00BF4DF808EDFFF7C4FFC5
:1012000034BF012000205DF808FB00BF4FEA410C0D
:101210007FEA6C5C02D150EA013C0AD14FEA430CF0
:101220007FEA6C5C02D152EA033C02D14FF000002D
:1012300070474FF00100704753B94AB9002908BF01
:1012400000281CBF4FF0FF314FF0FF3000F076B99F
:10125000ADF1080C6DE904CE00F006F8DDF804E00D
:10126000DDE9022304B070472DE9F047089E0D46E2
:1012700004468846002B4DD18A42944668D9B2FA7A
:1012800082F252B101FA02F3C2F1200120FA01F117
:101290000CFA02FC41EA030894404FEA1C41B8FBF7
:1012A000F1F71FFA8CFE01FB178807FB0EF0230CE9
:1012B00043EA084398420AD91CEB030307F1FF35C0
:1012C00080F01E81984240F21B81023F63441B1A4A
:1012D000B3FBF1F001FB103300FB0EFEA4B244EAB5
:1012E0000344A6450AD91CEB040400F1FF3380F047
:1012F0000981A64540F20681644402380021A4EB2E
:101300000E0440EA07401EB10023D440C6E9004362
:10131000BDE8F0878B4208D9002E00F0EE80002156
:10132000C6E900050846BDE8F087B3FA83F1002955
:101330004AD1AB4202D3824200F2FC80841A65EBB0
:10134000030301209846002EE2D0C6E90048DFE7FB
:1013500002B9FFDEB2FA82F2002A40F09180A1EBDE
:101360000C0001214FEA1C471FFA8CFEB0FBF7F37B
:1013700007FB1300250C45EA00450EFB03F0A842CD
:1013800008D91CEB050503F1FF3802D2A84200F290
:10139000CE8043462D1AB5FBF7F007FB10550EFB28
:1013A00000FEA4B244EA0544A64508D91CEB040497
:1013B00000F1FF3502D2A64500F2B6802846A4EB24
:1013C0000E0440EA03409EE7C1F120078B4022FA59
:1013D00007FC4CEA030C25FA07FA4FEA1C49BAFB52
:1013E000F9F820FA07F309FB18AA8D401FFA8CFEC2
:1013F0001D4300FA01F308FB0EF02C0C44EA0A44EA
:10140000A04202FA01F20BD91CEB040408F1FF3AE6
:1014100080F08880A04240F28580A8F102086444F0
:10142000241AB4FBF9F009FB104400FB0EFEADB228
:1014300045EA0444A64508D91CEB040400F1FF3535
:101440006CD2A6456AD90238644440EA0840A0FB41
:101450000295A4EB0E04AC42C846AE4656D353D018
:10146000002E69D0B3EB080264EB0E0422FA01F3FC
:1014700004FA07F71F43CC40C6E90074002147E790
:101480000CFA02FCC2F1200125FA01F34FEA1C47D5
:1014900020FA01F195400D43B3FBF7F107FB11333F
:1014A0001FFA8CFE280C40EA034001FB0EF3834236
:1014B00004FA02F408D91CEB000001F1FF382FD226
:1014C00083422DD902396044C01AB0FBF7F307FB01
:1014D0001300ADB245EA004503FB0EF0A84208D95F
:1014E0001CEB050503F1FF3816D2A84214D9023BC4
:1014F0006544281A43EA014138E73146304607E798
:101500002F46E4E61846F9E64B45A9D2B9EB0208A6
:1015100065EB0C0E0138A3E74346EAE7284694E75B
:101520004146D1E7D0467BE76444023847E7023BB7
:1015300065442FE7084606E73146E9E6704700BFF5
:1015400000B585B000230193029303931048114A1C
:1015500002608360037303754FF46022C2614360CD
:101560000123036100F020FD60B901230193029380
:101570000023039301A9064800F048FC28B905B0F0
:101580005DF804FB00F044F9EFE700F041F9F6E7FD
:10159000DC0900200024014000B587B0002302933D
:1015A0000393049305930268114B9A4202D007B04B
:1015B0005DF804FB03F56C439A6942F400729A618A
:1015C0009A6902F400720092009A9A6942F0040249
:1015D0009A619B6903F004030193019B0723029323
:1015E0000323039302A9034800F066FEDFE700BF70
:1015F000002401400008014008B50B480B4B036074
:101600001023436000238360C3600361436103765A
:1016100043768376C3760377437700F049FD00B9BC
:1016200008BD00F0F5F8FBE70C0A0020006400405C
:1016300010B586B0002302930393049305930268C8
:10164000164B9A4201D006B010BD03F5D633DA69C5
:1016500042F00072DA61DA6902F000720092009AD8
:101660009A6942F004029A619B6903F004030193B2
:10167000019B4FF400630293094C02A9204600F03D
:101680001BFE4FF48053029302230393032305931D
:1016900002A9204600F010FED5E700BF006400401C
:1016A000000801402DE9F04188B00024049405941D
:1016B00006940794254B9A6942F020029A619A6930
:1016C00002F020020192019A9A6942F004029A61A2
:1016D0009A6902F004020292029A9A6942F00802A0
:1016E0009A619B6903F008030393039BDFF8608012
:1016F00022465821404600F0F1FE164D01224FF4DB
:101700000041284600F0EAFE58230493012705977C
:1017100006940226079604A9404600F0CDFD4FF43A
:10172000705304930C4B0593069404A9284600F0CB
:10173000C3FD4FF40043049305970694079604A94C
:10174000284600F0B9FD08B0BDE8F0810010024065
:1017500000080140000C01400000211008B50B48B2
:101760000B4B03600B4B436000238360C3604FF45B
:101770008042026143618361C361036200F0B4FE91
:1017800000B908BD00F044F8FBE700BF340A0020B0
:1017900000540040A086010010B586B000230293DB
:1017A0000393049305930268154B9A4201D006B047
:1017B00010BD144CA36943F00803A361A36903F0AF
:1017C00008030093009B4FF440730293122303938A
:1017D0000323059302A90C4800F06EFD0B4A5368E1
:1017E00043F0E06343F002035360E36943F4001302
:1017F000E361E36903F400130193019BD7E700BFA2
:101800000054004000100240000C01400000014064
:1018100072B6FEE700B595B0282200210DEB02005C
:1018200003F0ACF8002305930693079308930993FC
:10183000019302930393049301220A924FF480339D
:101840000B930E920222119212934FF4E013139312
:101850000AA800F03DFFC8B90F23059302210691A5
:10186000002307934FF480620892099305A801F0C2
:101870006FF968B9022301934FF40043039301A861
:1018800001F042FA30B915B05DF804FBFFF7C0FF74
:10189000FFF7BEFFFFF7BCFF70B58AB000F07EFA1D
:1018A000FFF7B8FFFFF7FEFEFFF7A6FEFFF756FFB4
:1018B00000F0F0F900F066F9FFF742FE00F070F872
:1018C0002F4802F04FFB02F020F902F097FC4FF690
:1018D000FF7002F021FD2B4B009350231A4600218C
:1018E000084602F025FD284C002502951F2601968A
:1018F000636800932368254A2946502002F092FC31
:1019000002950196636800932368214A12215020B2
:1019100002F088FC2BE022464FF08041002002F0CC
:10192000F9F82046FEF778FD04460D4602460B46C0
:10193000184803F081F8184B93E803000590ADF8C0
:101940001810090C8DF81A10012000F04BFA0AA3A8
:10195000D3E9002320462946FEF700FCFEF7FCFDF4
:1019600004460E492046FFF7F3F80028D3D100249F
:10197000F7E700BFAFF300809A9999999999A93F29
:101980002C0B002008AF00080C000020E8AE000877
:10199000ECAE0008F4AE000800AF0008DB0FC94051
:1019A00008B50F480F4B03604FF4827343604FF448
:1019B000004383600023C360036143614FF40072FE
:1019C00082610822C2610362436283620A23C362A6
:1019D00001F0A2FA00B908BDFFF71AFFFBE700BF4C
:1019E000880A00200030014000B587B00023029330
:1019F0000393049305930268124B9A4202D007B0F6
:101A00005DF804FB03F560439A6942F480529A61E1
:101A10009A6902F480520092009A9A6942F0040294
:101A20009A619B6903F004030193019BA023029335
:101A3000022303930323059302A9034800F03CFC0F
:101A4000DDE700BF003001400008014082B00E4BCE
:101A50009A6942F001029A619A6902F001020092C9
:101A6000009ADA6942F08052DA61DB6903F0805350
:101A70000193019B054A536823F0E06343F0007330
:101A8000536002B0704700BF0010024000000140E8
:101A9000FEE7FEE7FEE7FEE7FEE7704770477047A8
:101AA00008B500F08DF908BD0120704708B502F0B7
:101AB00087FC162303604FF0FF3008BD08B54FF0D8
:101AC000FF31FFF7F3FFFEE708B503460B4A126844
:101AD00042B10A4A106803446A46934206D8074A4C
:101AE000136008BD054A06491160F2E702F068FC80
:101AF0000C2303604FF0FF30F3E700BFE00A002043
:101B0000C00B0020704700000268094B9A4200D0C9
:101B1000704782B003F564439A6942F400629A61A7
:101B20009B6903F400630193019B02B0704700BFFF
:101B3000002C014000B587B0002302930393049367
:101B4000059302680D4B9A4202D007B05DF804FB82
:101B500003F564439A6942F004029A619B6903F0B9
:101B600004030193019B4FF4E06302930223039368
:101B7000059302A9024800F09FFBE6E7002C014014
:101B80000008014030B597B00024129413941494C7
:101B900015941094119409940A940B940C940D9438
:101BA0000E940F9420252A46214601A802F0E6FE55
:101BB0003648374B03604460856040F6FF73C3606E
:101BC000046144618023836101F0CAFB002844D191
:101BD0004FF48053129312A92C4801F0BFFC002847
:101BE0003ED12A4801F0E8FB00283CD100231093A5
:101BF000119310A9254801F09BFD002836D16023E0
:101C0000099300220A920B920C920D920E920F925F
:101C100009A91E4801F02EFC58BB042209A91B4843
:101C200001F028FC40BB082209A9184801F022FC59
:101C300028BB0023019302930393049305934FF46D
:101C400000520692089301A9104801F0A7FDC8B9F7
:101C50000E48FFF76FFF17B030BDFFF7D9FDB7E7AC
:101C6000FFF7D6FDBDE7FFF7D3FDBFE7FFF7D0FDD8
:101C7000C5E7FFF7CDFDD0E7FFF7CAFDD3E7FFF7D4
:101C8000C7FDD6E7FFF7C4FDE2E700BFE40A002086
:101C9000002C014008B50A480A4B03604FF4E133B9
:101CA000436000238360C36003610C22426183614F
:101CB000C36101F01DFE00B908BDFFF7A9FDFBE7F8
:101CC0002C0B00200038014010B586B00023029391
:101CD00003930493059302681A4B9A4201D006B00D
:101CE00010BD03F558439A6942F480429A619A699B
:101CF00002F480420092009A9A6942F008029A61C6
:101D00009B6903F008030193019B40230293022384
:101D10000393032305930C4C02A9204600F0CCFA50
:101D20008023029300230393049302A9204600F02A
:101D3000C3FA064A536843F0E06343F00403536078
:101D4000CDE700BF00380140000C01400000014019
:101D500010B504460E4B18784FF47A73B3FBF0F3CA
:101D60000C4A1068B0FBF3F000F092FA68B90F2C3F
:101D700001D901200AE0002221464FF0FF3000F097
:101D80004FFA054B1C60002000E0012010BD00BF91
:101D900004000020000000200800002008B5074AC9
:101DA000136843F010031360032000F027FA0020AB
:101DB000FFF7CEFFFFF74AFE002008BD00200240DB
:101DC000034A1168034B1B780B441360704700BF34
:101DD000700B002004000020014B1868704700BF02
:101DE000700B002038B50446FFF7F6FF0546B4F146
:101DF000FF3F02D0044B1B781C44FFF7EDFF401B54
:101E0000A042FAD338BD00BF0400002030B482B035
:101E10000022019290F82420012A00F091800346CC
:101E2000012280F824204A68062A2DD80468606BB5
:101E300002EB8202053A4FF01F0C0CFA02FC20EA7A
:101E40000C000D6805FA02F2024362630A68092A6F
:101E50003AD91C68E06802EB42021E3A4FF0070CC8
:101E60000CFA02FC20EA0C008D6805FA02F202432B
:101E7000E2600A68103A012A36D90020002283F86D
:101E8000242002B030BC70470C2A0ED80568286B9D
:101E900002EB8202233A1F24944020EA04000C68DB
:101EA00004FA02F202432A63D0E70568E86A02EB0B
:101EB0008202413A1F24944020EA04000C6804FA8C
:101EC00002F20243EA62C1E71C68206902EB4202A7
:101ED0004FF0070C0CFA02FC20EA0C008D6805FAA2
:101EE00002F202432261C4E71A681648824205D012
:101EF0009A6A42F020029A620120BFE7906810F4CB
:101F0000000F1BD1906840F4000090600A68102A0E
:101F100001D00020B2E70C4A12680C49A1FB021262
:101F2000920C02EB82025200019202E0019A013A05
:101F30000192019A002AF9D100209FE700209DE735
:101F400002209EE7002401400000002083DE1B43A6
:101F500038B503689A6812F0010F01D1002038BD2E
:101F600004469A6822F001029A60FFF735FF0546A1
:101F700023689B6813F0010F13D0FFF72DFF431B5D
:101F8000022BF5D923689B6813F0010FF0D0A36AE8
:101F900043F01003A362E36A43F00103E36201200C
:101FA000DDE70020DBE7000000287BD070B50446A9
:101FB000836A002B4DD02046FFF7CAFFA36A13F0B7
:101FC000100369D1002867D1A26A22F4885222F056
:101FD000020242F00202A2626268E1690A43217BC6
:101FE00042EA4102A568B5F5807F02D0012D36D0C6
:101FF0001D46267D012E35D02668716821F4694181
:10200000294371602568AE68274931401143A960B2
:10201000A168B1F5807F01D0012902D12369013B7C
:102020001B052568E96A21F470010B43EB62236804
:1020300099681E4B0B409A4225D0A36A23F01203E5
:1020400043F01003A362E36A43F00103E36201205B
:1020500027E0C36280F82430FFF79EFAABE74FF425
:102060008075C6E731B9A169013945EA413141F4CA
:102070000065C1E7A16A41F02001A162E16A41F077
:102080000101E162B8E70023E362A36A23F00303DE
:1020900043F00103A36204E0A36A43F01003A362C8
:1020A000012070BD01207047FDF7E1FFFE0E1FFF0C
:1020B000002800F0A18038B5044690F82030D3B154
:1020C0002268136843F001031360FFF785FE05469D
:1020D00023685A6812F0010F10D1FFF77DFE401BF4
:1020E0000A28F5D9636A43F400336362052384F850
:1020F0002030012038BDFFF79BFAE1E71A6822F093
:1021000002021A60FFF768FE054623685A6812F05B
:10211000020F0DD0FFF760FE401B0A28F5D9636A55
:1021200043F400336362052384F820300120E1E7A3
:10213000227E012A3DD01A6822F080021A60637E56
:10214000012B3BD02268136823F040031360A37E69
:10215000012B39D02268136823F020031360E37E3B
:10216000012B37D02268136843F010031360237FDC
:10217000012B35D02268136823F008031360637FB6
:10218000012B33D02268136823F004031360A36883
:10219000E268134322691343626913436268013A98
:1021A00021681343CB6100206062012384F8203052
:1021B000A0E71A6842F080021A60C0E7226813683C
:1021C00043F040031360C2E72268136843F0200322
:1021D0001360C4E72268136823F010031360C6E796
:1021E0002268136843F008031360C8E72268136885
:1021F00043F004031360CAE701207047074AD3681D
:1022000023F4E0631B041B0C000200F4E0600343B2
:1022100043F0BF6343F40033D360704700ED00E048
:1022200000B5194BDB68C3F30223C3F1070CBCF103
:10223000040F28BF4FF0040C03F1040EBEF1060F8B
:1022400018D9033B4FF0FF3E0EFA0CFC21EA0C01BB
:1022500099400EFA03F322EA0303194300280BDB2B
:102260000901C9B200F1604000F5614080F8001337
:102270005DF804FB0023E5E700F00F000901C9B297
:10228000024B1954F4E700BF00ED00E014ED00E04C
:102290000138B0F1807F0BD24FF0E0235861054A3E
:1022A000F02182F823100020986107221A617047FC
:1022B0000120704700ED00E070B582B00024A44614
:1022C000A6E0804DAA4210D007D97F4DAA420CD07B
:1022D00005F58035AA4208D013E0A5F58015AA427D
:1022E00003D005F57025AA4207D18A68002A58D084
:1022F000012A51D04361082403E0A5F58015AA42C4
:10230000F3D0BEF1FF0F4ED80646BEF1FF0F4CD8FA
:102310004FEA8C0233680F25954023EA050304FA3F
:1023200002F2134333604B6813F0805F6ED0674B4B
:102330009A6942F001029A619B6903F001030193DB
:10234000019B4FEA9C02951C614B53F825600CF0F1
:1023500003039D000F23AB4026EA03065D4B984222
:1023600029D003F58063984200F08E8003F58063E6
:10237000984200F08B8003F58063984219D00423C3
:102380001AE0CC68BDE7CC680434BAE7CC680834FE
:10239000B7E7CC680C34B4E703610824B1E7002444
:1023A000AFE70424ADE7061DAFE7ACF108029200E9
:1023B000B0E7032300E00023AB4033430232444D37
:1023C00045F822304B6813F4803F61D0424A1368CD
:1023D00043EA0E0313604B6813F4003F5ED03E4A9D
:1023E000536843EA0E0353604B6813F4801F5BD0BD
:1023F000394A936843EA0E0393604B6813F4001F55
:1024000058D0354AD36843EA0E03D3600CF1010C6F
:102410000A6832FA0CF353D0012303FA0CF302EAF0
:10242000030E33EA0202F1D14A68122A3FF649AF9D
:10243000122A3FF666AF01A555F822F0EB220008FC
:10244000832300088D2300089F230008032300082E
:1024500003230008032300080323000803230008C4
:1024600003230008032300080323000803230008B4
:1024700003230008032300080323000803230008A4
:102480008723000893230008012395E7022393E79D
:10249000114A136823EA0E0313609CE70E4A53683F
:1024A00023EA0E0353609FE70B4A936823EA0E0367
:1024B0009360A2E7084AD36823EA0E03D360A5E736
:1024C00002B070BD00002210000031100010024068
:1024D0000000014000080140000401400AB1016110
:1024E0007047090401617047002800F0CC8070B586
:1024F000044690F83D30002B77D0242384F83D30FB
:102500002268136823F0010313602268136843F400
:10251000004313602268136823F40043136000F043
:10252000D3FB62685A4B9A4264D85A4B98428CBF8C
:1025300000230123002B40F0A8805749A1FB003164
:102540008B0C25686A6822F03F0242EA91426A6079
:1025500021680A6A22F03F0266684D4DAE424FD8AC
:10256000013313430B622168CA6922F44F4222F0FF
:10257000FF026668464B9E424CD8431E7600B3FB72
:10258000F6F3013340F6FC70034278D0C3F30B033B
:102590001343CB6121680B6823F0C003E269206A12
:1025A000024313430B6021688B6823F4034323F039
:1025B000FF032269E068024313438B602168CB6804
:1025C00023F0FF036269A06902431343CB602268D2
:1025D000136843F00103136000202064202384F873
:1025E0003D30206384F83E0070BD80F83C30FFF73A
:1025F000D3F882E7294B98428CBF0023012399E747
:102600004FF4967505FB03F3254DA5FB03539B097A
:102610000133A6E7A368BBB9451E06EB460CB5FB24
:10262000FCF50135C5F30B05B5FA85F56D0945BB1C
:10263000C3B9013806EB4603B0FBF3F30133C3F330
:102640000B0343F40043A3E7451E06EB860C0CEB9B
:102650008C0CB5FBFCF50135C5F30B05B5FA85F51A
:102660006D09E4E7013806EB860303EB8303B0FB57
:10267000F3F30133C3F30B0343F4404388E704232C
:1026800086E7012384E7012070470120ACE700BF03
:10269000A08601007F841E0083DE1B43FF083D00EF
:1026A000D34D621082B0084B1B68084AA2FB03237B
:1026B0005B0A00FB03F3019300BF019B5A1E0192CA
:1026C000002BF9D102B0704700000020D34D6210FA
:1026D000002800F0F18170B582B00446036813F061
:1026E000010F2CD0994B5B6803F00C03042B1DD019
:1026F000964B5B6803F00C03082B12D06368B3F5AC
:10270000803F41D0002B55D103F1804303F50433C2
:102710001A6822F480321A601A6822F480221A6041
:1027200037E08A4B5B6813F4803FE7D0874B1B6828
:1027300013F4003F03D06368002B00F0BF812368CF
:1027400013F0020F75D0814B5B6813F00C0F5FD054
:102750007E4B5B6803F00C03082B54D02369002BDD
:1027600000F08A807A4B01221A60FFF735FB05469C
:10277000764B1B6813F0020F75D1FFF72DFB401B42
:102780000228F5D903209EE1704A136843F4803390
:102790001360636843B3FFF71FFB05466B4B1B6871
:1027A00013F4003FCBD1FFF717FB401B6428F5D98A
:1027B000032088E1B3F5A02F09D0644B1A6822F4F6
:1027C00080321A601A6822F480221A60E1E703F16D
:1027D0008043A3F53C331A6842F480221A601A68D9
:1027E00042F480321A60D4E7FFF7F6FA0546574BF9
:1027F0001B6813F4003FA2D0FFF7EEFA401B6428D9
:10280000F5D903205FE1514B5B6813F4803FA5D1FC
:102810004E4B1B6813F0020F03D02369012B40F0CD
:102820004F814A4A136823F0F803616943EAC10300
:102830001360236813F0080F33D0A369002B5CD01A
:10284000434B0122C3F88024FFF7C6FA05463F4BED
:102850005B6A13F0020F21D1FFF7BEFA401B02287A
:10286000F5D903202FE1394A136823F0F803616991
:1028700043EAC1031360DCE7354B00221A60FFF71F
:10288000ABFA0546314B1B6813F0020FD1D0FFF7AE
:10289000A3FA401B0228F5D9032014E10120FFF719
:1028A00001FF236813F0040F00F09680274BDB69CB
:1028B00013F0805F34D1254BDA6942F08052DA613F
:1028C000DB6903F080530193019B0125214B1B68B9
:1028D00013F4807F26D0E368012B3DD0002B53D129
:1028E00003F1804303F504331A6A22F001021A62ED
:1028F0001A6A22F004021A6233E0154B0022C3F870
:102900008024FFF769FA0546104B5B6A13F0020F4B
:10291000C7D0FFF761FA401B0228F5D90320D2E0A7
:102920000025D3E70B4A136843F480731360FFF765
:1029300053FA0646074B1B6813F4807FCBD1FFF791
:102940004BFA801B6428F5D90320BCE0001002403C
:1029500000004242007000405F4A136A43F00103E6
:102960001362E36833B3FFF737FA06465A4B1B6A24
:1029700013F0020F2FD1FFF72FFA801B41F288339B
:102980009842F3D903209EE0052B09D0524B1A6AD6
:1029900022F001021A621A6A22F004021A62E0E7C7
:1029A0004D4B1A6A42F004021A621A6A42F001029E
:1029B0001A62D6E7FFF710FA0646474B1B6A13F078
:1029C000020F08D0FFF708FA801B41F288339842C3
:1029D000F3D9032077E0E5B9E369002B72D03E4AD2
:1029E000526802F00C02082A56D0022B17D03B4B3B
:1029F00000221A66FFF7F0F90446374B1B6813F004
:102A0000007F47D0FFF7E8F9001B0228F5D9032023
:102A100059E0314AD36923F08053D361DCE72F4B6F
:102A200000221A66FFF7D8F905462B4B1B6813F0F6
:102A3000007F06D0FFF7D0F9401B0228F5D903200C
:102A400041E0236AB3F5803F1AD023494B6823F451
:102A50007413226A606A024313434B601F4B0122C6
:102A60001A66FFF7B9F904461B4B1B6813F0007F89
:102A70000ED1FFF7B1F9001B0228F5D9032022E09F
:102A8000154A536823F40033A1680B435360DCE715
:102A9000002018E0002016E0012B16D00E4B5B68DA
:102AA00003F48031226A914211D103F47013626AF7
:102AB00093420ED1002006E001207047012002E081
:102AC000012000E0002002B070BD0120FBE70120E2
:102AD000F9E70120F7E700BF001002400000424282
:102AE00086B0174B0FCB0DF1180C0CE90F0040F21C
:102AF0000123ADF80430134B5B6803F00C02082A85
:102B000002D0114806B07047C3F3834218326A44BA
:102B100012F8100C13F4803F0DD00A4B5B68C3F31E
:102B2000404318336B4413F8143C074A02FB00F08F
:102B3000B0FBF3F0E6E7054B03FB00F0E2E700BF74
:102B400020E100080010024000127A0000093D0058
:102B5000002800F0A08070B50D460446524B1B685B
:102B600003F007038B420BD24F4A136823F007038D
:102B70000B431360136803F007038B4240F08D8012
:102B8000236813F0020F17D013F0040F04D0474A44
:102B9000536843F4E0635360236813F0080F04D0D4
:102BA000424A536843F460535360404A536823F0E9
:102BB000F003A1680B435360236813F0010F31D079
:102BC0006368012B20D0022B25D0384A126812F0FE
:102BD000020F64D035494A6822F0030213434B6068
:102BE000FFF7FAF80646314B5B6803F00C036268A6
:102BF000B3EB820F16D0FFF7EFF8801B41F288335A
:102C00009842F0D9032045E0284A126812F4003FA8
:102C1000E0D101203EE0254A126812F0007FD9D1B0
:102C2000012037E0204B1B6803F00703AB420AD9B1
:102C30001D4A136823F007032B431360136803F046
:102C40000703AB422DD1236813F0040F06D0174AB7
:102C5000536823F4E063E1680B435360236813F087
:102C6000080F07D0114A536823F46053216943EADF
:102C7000C1035360FFF734FF0C4B5B68C3F30313CE
:102C80000B4AD35CD8400B4B18600B4B1868FFF70E
:102C90005FF8002070BD012070470120FAE7012095
:102CA000F8E70120F6E700BF0020024000100240D4
:102CB00008E100080000002008000020014B18680F
:102CC000704700BF0000002008B5FFF7F7FF044B76
:102CD0005B68C3F30223034AD35CD84008BD00BF3E
:102CE0000010024018E1000808B5FFF7E7FF044BA9
:102CF0005B68C3F3C223034AD35CD84008BD00BF5E
:102D00000010024018E1000870B582B00446036864
:102D100013F0010F36D03F4BDB6913F0805F49D1D0
:102D20003C4BDA6942F08052DA61DB6903F0805390
:102D30000193019B0125384B1B6813F4807F3BD026
:102D4000344B1B6A13F4407313D0626802F4407270
:102D50009A420ED02F4A136A23F440702F4901265D
:102D6000C1F840640026C1F84064106213F0010FFE
:102D700036D1284A136A23F4407361680B43136207
:102D8000002D3ED1236813F0020F06D0214A53686C
:102D900023F44043A1680B435360236813F0100FE2
:102DA00034D01C4A536823F48003E1680B4353601A
:102DB00000202CE00025BEE7174A136843F4807317
:102DC0001360FFF709F80646134B1B6813F4807F66
:102DD000B6D1FFF701F8801B6428F5D9032016E06F
:102DE000FEF7FAFF06460B4B1B6A13F0020FC0D129
:102DF000FEF7F2FF801B41F288339842F3D903209B
:102E000005E0D36923F08053D361BBE7002002B013
:102E100070BD00BF00100240007000400000424240
:102E20002DE9F04782B00546884617461E46FEF754
:102E3000D3FF0A9B1B1A03EB0609FEF7CDFF824660
:102E40002B4B1B68C3F3CB3309FB03F301932B68B4
:102E50009C6838EA04030CBF4FF0010C4FF0000CE3
:102E6000BC4540D0B6F1FF3FF1D0FEF7B5FFA0EB77
:102E70000A0048450AD2B9F1000F07D0019A02B101
:102E80004A46019B013B01939146E0E72A6853685B
:102E900023F0E00353606B68B3F5827F0BD0AB6A1D
:102EA000B3F5005F14D0012385F85130002385F875
:102EB0005030032018E0AB68B3F5004F02D0B3F5F3
:102EC000806FECD12A68136823F040031360E6E7B3
:102ED0002A68136823F4005313602A68136843F4C4
:102EE00000531360DFE7002002B0BDE8F08700BFA9
:102EF0000000002010B582B004460B46009200226C
:102F00008021FFF78DFF08B902B010BD636D43F05B
:102F1000200363650320F7E7002856D010B5044668
:102F2000436A33B94368B3F5827F05D00023C36198
:102F300002E00023036143610023A36294F851304F
:102F4000002B3CD0022384F851302268136823F010
:102F500040031360636803F48273A26802F40442BE
:102F60001343E26802F400621343226902F0020292
:102F70001343626902F001021343A26902F4007272
:102F80001343E26902F038021343226A02F080021E
:102F90001343A26A02F40052216813430B60638B4F
:102FA000226803F0040353602268D36923F40063AA
:102FB000D36100206065012384F8513010BD84F88E
:102FC00050302046FEF710FDBCE7012070472DE988
:102FD000F04383B01D4690F85030012B00F0D180B3
:102FE000044688469146012380F85030FEF7F4FEEF
:102FF000074694F85160F6B2012E40F0AF80B8F168
:10300000000F00F0AC80B9F1000F00F0A88003239E
:1030100084F8513000236365C4F83080A4F83490FC
:10302000A4F83690A363A387E38763642364A3684B
:10303000B3F5004F1ED023681A6812F0400F03D179
:103040001A6842F040021A60E368B3F5006F1CD0C2
:10305000636813B1B9F1010F52D1226B2368127862
:103060001A73236B01332363E38E9BB2013B9BB244
:10307000E38645E02268136823F04003136022686A
:10308000136843F480431360D5E7636813B1B9F163
:10309000010F16D1226B23681288DA60236B02338A
:1030A0002363E38E9BB2013B9BB2E38609E0FEF70C
:1030B00093FEC01BA84202D3B5F1FF3F59D1002DAA
:1030C00059D0E38E9BB2002B33D023689A6812F05C
:1030D000020FECD0226B1288DA60236B0233236379
:1030E000E38E9BB2013B9BB2E386EAE7FEF774FEF8
:1030F000C01BA84202D3B5F1FF3F3ED1002D3ED008
:10310000E38E9BB2ABB123689A6812F0020FEDD048
:10311000226B12781A73236B01332363B4F836C021
:103120001FFA8CFC0CF1FF3C1FFA8CFCA4F836C093
:10313000E6E73A4629462046FFF7DCFE08B12023A1
:103140006365A36833B901932368DA6801929B68C9
:103150000193019B636D13B9002600E00226012351
:1031600084F85130002384F85030304603B0BDE875
:10317000F0830326F3E70326F1E70326EFE70326B0
:10318000EDE70226F1E7000070B4036A23F00103C3
:103190000362036A4668826922F073020C6844EA9B
:1031A000020523F002028B6813430D4CA04209D0A4
:1031B0000B4CA0420DD0466085614A6842630362B1
:1031C00070BC704723F00803CA68134323F004035C
:1031D000EEE726F440764A6932438E691643EAE701
:1031E000002C014030B4036A23F480730362036A45
:1031F0004568C26922F073020C68224323F400730D
:103200008C6843EA04230F4CA04209D00D4CA04225
:103210000ED04560C2614A68C263036230BC704729
:1032200023F40063CC6843EA042323F48063EDE7CE
:1032300025F440554C6945EA04158C6945EA0415A6
:10324000E7E700BF002C014030B4036A23F4805349
:103250000362036A4468C26922F4E6420D6842EAE6
:10326000052223F400538D6843EA0533074DA84235
:1032700006D04460C2614A680264036230BC704791
:1032800024F480444D6944EA8514F2E7002C01409F
:1032900010B4036A046A24F001040462846924F00F
:1032A000F00C4CEA021223F00A030B438261036222
:1032B00010BC704710B4046A24F0100404628469DE
:1032C000036A24F4704C4CEA023223F0A00343EA70
:1032D00001138261036210BC7047836823F070039E
:1032E0000B4343F0070383607047704703681B4A32
:1032F00090420AD0B0F1804F07D0A2F594329042AC
:1033000003D002F58062904203D123F070034A6833
:103310001343124A90420AD0B0F1804F07D0A2F571
:103320009432904203D002F58062904203D123F49C
:103330004073CA68134323F080034A691343036050
:103340008B68C3620B688362044B984202D00123EE
:10335000436170470B690363F9E700BF002C01402C
:1033600040B310B5044690F83D30F3B1022384F821
:103370003D30214651F8040BFFF7B8FF012384F8D4
:10338000463084F83E3084F83F3084F8403084F88A
:10339000413084F8423084F8433084F8443084F873
:1033A000453084F83D30002010BD80F83C30FEF7F9
:1033B000ABFBDBE70120704740B310B5044690F843
:1033C0003D30F3B1022384F83D30214651F8040B1F
:1033D000FFF78CFF012384F8463084F83E3084F8F0
:1033E0003F3084F8403084F8413084F8423084F82B
:1033F000433084F8443084F8453084F83D30002070
:1034000010BD80F83C30FFF770FFDBE7012070470C
:1034100030B4036A23F010030362036A44688269CC
:1034200022F4E6420D6842EA052223F020038D686B
:1034300043EA05130E4DA84209D00D4DA8420ED007
:10344000446082614A688263036230BC704723F043
:103450008003CD6843EA051323F04003EDE724F42D
:1034600040644D6944EA85048D6944EA8504E7E7D0
:10347000002C014038B590F83C30012B60D0044658
:103480000D46012380F83C300C2A1AD8DFE802F000
:10349000071919191D19191931191919440000684A
:1034A000FFF772FE2268936943F008039361226874
:1034B000936923F0040393612268936929690B439C
:1034C0009361002084F83C0038BD0068FFF7A0FF3E
:1034D0002268936943F4006393612268936923F43B
:1034E0008063936122689369296943EA01239361A8
:1034F000E7E70068FFF776FE2268D36943F0080328
:10350000D3612268D36923F00403D3612268D369AD
:1035100029690B43D361D4E70068FFF795FE226861
:10352000D36943F40063D3612268D36923F48063D1
:10353000D3612268D369296943EA0123D361C0E7D3
:103540000220C1E710B4846824F47F4C42EA0322CD
:103550000A4342EA0C02826010BC704790F83C308B
:10356000012B66D010B50446012380F83C300223BD
:1035700080F83D300268936823F47F4323F077039B
:1035800093600B68602B40D022D8402B47D00BD9DA
:10359000502B0ED1CA6849680068FFF779FE5021A8
:1035A0002068FFF79AFE04E0202B0CD008D9302BBE
:1035B00009D0012384F83D30002084F83C0010BD80
:1035C0000BB1102BF5D119462068FFF786FEF0E706
:1035D000702B0ED0B3F5005FEBD1CB684A688968D9
:1035E0000068FFF7AFFF2268936843F4804393605D
:1035F000DFE7CB684A6889680068FFF7A3FF2268A5
:10360000936843F077039360D3E7CA68496800681A
:10361000FFF750FE60212068FFF75FFEC9E7CA6828
:1036200049680068FFF734FE40212068FFF755FE27
:10363000BFE70220704701F01F01012303FA01FCDC
:10364000036A23EA0C030362036A02FA01F10B43E3
:103650000362704710B50446084651BB94F83E30EB
:10366000DBB2013B18BF0123002B5BD1002839D10D
:10367000022384F83E30012201462068FFF7DBFF79
:1036800023682A4A93423DD02368284A93423ED079
:10369000B3F1804F3BD0A2F59432934237D002F57C
:1036A0008062934233D01A6842F001021A6000200F
:1036B00039E0042908D008290DD094F84130DBB254
:1036C000013B18BF0123CFE794F83F30DBB2013B49
:1036D00018BF0123C8E794F84030DBB2013B18BFA4
:1036E0000123C1E7042805D0082807D0022384F865
:1036F0004130C0E7022384F83F30BCE7022384F85E
:103700004030B8E75A6C42F400425A64BCE79A6809
:1037100002F00702062A07D01A6842F001021A6076
:10372000002000E0012010BD0020FCE7002C01403B
:1037300090F83C30012B2CD010B4012380F83C30A1
:10374000022380F83D3003685A689C6822F0700CB0
:103750000A6842EA0C025A6003680F4A93420AD090
:10376000B3F1804F07D0A2F59432934203D002F513
:103770008062934204D124F080044A6814439C6020
:10378000012380F83D30002380F83C30184610BCFF
:1037900070470220704700BF002C014090F83C3079
:1037A000012B22D0012380F83C30CB6823F44073F6
:1037B0008A68134323F480634A68134323F4006345
:1037C0000A68134323F480530A69134323F4005314
:1037D0004A69134323F48043CA691343026853645C
:1037E000002380F83C3018467047022070470000E4
:1037F00010B504460268136923F44053C1680B43B3
:10380000136183680269134342691A430168CB68F4
:1038100023F4B05323F00C031343CB6002685369C5
:1038200023F4407381690B4353610268134B9A423E
:1038300020D0FFF749FA024602EB820202EB820235
:1038400063689B00B2FBF3F20D48A0FB023149090B
:10385000642303FB11231B013233A0FB03235B0909
:1038600003F0F00202EB011203F00F03216813448E
:103870008B6010BDFFF738FA0246DDE700380140E3
:103880001F85EB512DE9F84305460F46164699462C
:10389000DDF820802C68246837EA04030CBF4FF061
:1038A000010C4FF0000CB4451FD1B8F1FF3FF1D02F
:1038B000B8F1000F05D0FEF78FFAA0EB09004045E4
:1038C000E8D92A68D36823F4D073D3602A6853698F
:1038D00023F001035361202385F83D3085F83E3005
:1038E000002385F83C30032000E00020BDE8F88389
:1038F00058B310B5044690F83D300BB3242384F838
:103900003D302268D36823F40053D3602046FFF78C
:103910006FFF2268136923F490431361226853698F
:1039200023F02A0353612268D36843F40053D36021
:1039300000202064202384F83D3084F83E3010BD00
:1039400080F83C30FEF7C0F9D8E7012070472DE938
:10395000F04182B01E4690F83D30DBB2202B54D1AE
:1039600004460D469046002953D0002A53D090F8C3
:103970003C30012B51D0012380F83C3000230364FC
:10398000212380F83D30FEF727FA0746A4F824806B
:10399000A4F82680A368B3F5805F05D04FF0000837
:1039A000002384F83C3012E0236913B14FF0000883
:1039B000F6E7A8460025F3E738F8023B2268C3F390
:1039C00008035360E28C92B2013A92B2E284E38C33
:1039D0009BB273B100963B46002280212046FFF740
:1039E00051FFE0B9002DE7D015F8012B23685A608C
:1039F000E8E700963B46002240212046FFF742FFC1
:103A000078B9202384F83D3000E0022002B0BDE800
:103A1000F0810120FAE70120F8E70220F6E7032011
:103A2000F4E70320F2E72DE9F04182B01E4690F85A
:103A30003E30DBB2202B5CD104460D469046002977
:103A40005BD0002A5BD090F83C30012B59D0012389
:103A500080F83C3000230364222280F83E20036378
:103A6000FEF7BAF90746A4F82C80A4F82E80A368C4
:103A7000B3F5805F05D04FF00008002384F83C3098
:103A800017E0236913B14FF00008F6E7A8460025B8
:103A9000F3E723685B68C3F3080328F8023B03E0FD
:103AA00023685B682B700135E28D92B2013A92B2C5
:103AB000E285E38D9BB2BBB100963B4600222021FC
:103AC0002046FFF7DFFEF0B9002DE2D0A368B3F582
:103AD000805FE5D013B92369002BE1D023685B68D0
:103AE00003F07F032B70DEE7202384F83E300020B4
:103AF00000E0022002B0BDE8F0810120FAE70120D9
:103B0000F8E70220F6E70320F4E708B500F0E0F953
:103B100008BD00002DE9F8430446884616460846CD
:103B2000FCF778FE054621462046FCF773FE014669
:103B30002846FCF767FD00F0C1F94FF07851FCF71B
:103B400069FE07464046FCF767FC804689462046EA
:103B5000FCF762FC42464B4606F0E2FD04460D4689
:103B60003046FCF759FC22462B46FCF7F7FAFCF7E7
:103B7000F3FC00F085F980466449FCF7FFFEFCF792
:103B80004BFC06F051FD0022614BFCF7E7FAFCF715
:103B90009BFC0546FCF7EAFD04465C49FCF73AFE4F
:103BA0004146FCF72DFD00F0B7F85A49FCF732FE0C
:103BB0003946FCF72FFE06464FF07E512046FCF7B3
:103BC0001FFD5249FCF726FE01464046FCF718FD52
:103BD00000F0A2F84F49FCF71DFE3946FCF71AFE2B
:103BE000044631464FF07E50FCF70AFD2146FCF7B3
:103BF00007FD07466B1E052B00F28380DFE803F00C
:103C0000031F3245586B21463046FCF7FBFC054646
:103C10004FF07C513846FCF7FDFD0746014628462B
:103C2000FCF7F0FC054621463846FCF7EBFC8046E5
:103C30003A464146284600F067F9BDE8F8834FF060
:103C40007C51FCF7E7FD07463146FCF7DBFC0546F7
:103C500021463046FCF7D6FC01463846FCF7D2FC3C
:103C60008046E5E74FF07C51FCF7D4FD0546214640
:103C70003046FCF7C7FC2946FCF7C4FC80462946C1
:103C80002046FCF7BFFC0746D2E74FF07C51FCF71B
:103C9000C1FD054601463046FCF7B4FC804621468E
:103CA0003046FCF7AFFC2946FCF7ACFC0746BFE703
:103CB0004FF07C51FCF7AEFD80462146FCF7A2FC9C
:103CC000054621463046FCF79DFC01464046FCF780
:103CD00099FC0746ACE721463046FCF793FC0446C6
:103CE0004FF07C513846FCF795FD80460146204652
:103CF000FCF788FC054631464046FCF783FC074646
:103D000096E70027B8463D4692E700BF920A863FF5
:103D10000000F03FD7B3DD3F10B504465049FCF733
:103D200017FF38BB4F492046FCF712FF002842D14D
:103D30004D492046FCF70CFF00286BD04B4920462C
:103D4000FCF768FD04460021FCF716FF002857D059
:103D50004FF07C512046FCF755FCFCF721FFA0F505
:103D6000C770434B53F82000FCF700FD4149FCF7B6
:103D700051FD17E03D492046FCF74CFD044600216B
:103D8000FCF7FAFE78B14FF07C512046FCF73AFC84
:103D9000FCF706FF364B53F82000FCF7E7FC3649EA
:103DA000FCF738FD10BD4FF07C512046FCF728FC95
:103DB000FCF7F6FEEEE72D492046FCF72BFD044606
:103DC0000021FCF7D9FE88B14FF07C512046FCF76A
:103DD00019FCFCF7E5FEC0F5C770254B53F8200031
:103DE000FCF7C4FC2449FCF715FDDBE74FF07C51E0
:103DF0002046FCF705FCFCF7D3FEC0F5C770ECE7E6
:103E00004FF07C512046FCF7FBFBFCF7C9FEA0F508
:103E1000C770A6E715492046FCF7FCFC04460021C4
:103E2000FCF7AAFE88B14FF07C512046FCF7EAFB74
:103E3000FCF7B6FEC0F547700D4B53F82000FCF7B9
:103E400095FC0C49FCF7E6FCACE74FF07C512046B2
:103E5000FCF7D6FBFCF7A4FEC0F54770ECE700BF0B
:103E6000DB0FC93FDB0F4940E4CB9640E65FFD42E4
:103E700034E1000817B7D1B817B7D13800000000F7
:103E800010B5FCF7C9FA0AA3D3E9002306F04AFCEF
:103E9000FCF762FB04460021FCF76EFE08B12046E9
:103EA00010BD05492046FCF7ADFB0446F7E700BF0F
:103EB00000000060FB211940DB0FC94008B5014636
:103EC0000248A0EB6100FCF7A5FC08BD865A375FED
:103ED00010B501224FF400410848FEF7FFFA084CE4
:103EE00000212046FFF7B6FB04212046FFF7B2FB76
:103EF00008212046FFF7AEFB10BD00BF000C0140BB
:103F0000E40A00200000000070B50E461546FCF7DC
:103F100083FA11A3D3E90023FCF7DEFE104B1C68E3
:103F2000FCF7FAFA60633046FCF776FA0AA3D3E9A5
:103F30000023FCF7D1FEFCF7EFFAA0632846FCF75C
:103F40006BFA05A3D3E90023FCF7C6FEFCF7E4FAFD
:103F5000E06370BDAFF300800000000000FEAF40E2
:103F6000E40A002008B5054B1860054B18680023CB
:103F700002221946806800F085FD08BD740B002000
:103F800014000020022801D80120704708B500F075
:103F900017FA09230360002008BD000010B501389E
:103FA00001280AD814464FF0FF3392B20748006840
:103FB000FFF7CDFC40B9204610BD00F001FA0923FF
:103FC00003604FF0FF30F7E70520F5E7740B0020A2
:103FD000022801D80020704708B500F0F1F9092344
:103FE00003604FF0FF3008BD08B500F0E9F9092380
:103FF00003604FF0FF3008BD08B548B94FF0FF33FC
:10400000012208480068FFF70EFD40B9012008BDF5
:1040100000F0D6F9092303604FF0FF30F7E70520E1
:10402000F5E700BF740B002008B5022804D84FF450
:1040300000534B60002008BD00F0C2F90923036063
:10404000F8E7000010B5074C002240212046FEF79B
:1040500045FA0520FDF7C6FE012240212046FEF765
:104060003DFA10BD0008014000B583B08DF807008F
:10407000002210210648FEF731FA4FF0FF330122EB
:104080000DF107010348FEF7A2FF03B05DF804FB42
:1040900000080140880A002038B504460D46012278
:1040A00010210548FEF71AFA4FF0FF33AAB2214655
:1040B0000248FEF78CFF38BD00080140880A002046
:1040C000F8B5064616F8012B09E039462046FFF7F9
:1040D000E3FF3C440FE0FDF785FE2A462646531ECB
:1040E000DDB292B1344614F8020BFFF7BDFF7678CB
:1040F00016F07F07E9D116F0800FEED014F8010B0F
:10410000FF28E8D14FF4FA70E5E7F8BDF0B583B0C9
:1041100007460D4616461C462A20FFF7A5FF00233A
:104120008DF8043001378DF805708DF806300136B2
:104130008DF8076004210DEB0100FFF7ADFF2B2088
:10414000FFF792FF1A358DF805501A348DF80740A5
:1041500004210DEB0100FFF79FFF2C20FFF784FFE8
:1041600003B0F0BD82B02DE9F04F83B093460D93BC
:10417000BDF83C80BDF84070C0B2C9B29DF8345063
:104180004219D2B29DF835A001EB0A03DBB2013B24
:10419000013ADBB2D2B2FFF7B9FF4FF000091DE0E0
:1041A0003B0A8DF804308DF80570022101A8FFF755
:1041B00073FF0134A5420FD906FA04F313F4004F3C
:1041C000EED04FEA18238DF804308DF805800221D7
:1041D00001A8FFF761FFECE709F10109CA4508D919
:1041E000ABF120030AFB03930E9A32F8136000240C
:1041F000E0E703B0BDE8F04F02B0704708B5FFF745
:1042000021FF0548FFF75CFF0448FFF759FF04480A
:10421000FFF756FF08BD00BFB0F10008ECF1000841
:10422000FCF1000882B02DE9F04385B006460D464A
:1042300017460D93BDF83C90BDF8408010E0013763
:1042400000260DE0CDF80880CDF804900E9B009379
:104250000D9B29463046FFF785FF3444A6B201374F
:104260003A787AB19DF8344033199F2BEADD9DF8F6
:1042700035301D44ADB22B444F2B03DC202ADED059
:104280000026DFE705B0BDE8F04302B0704700004C
:1042900070B582B0BDF818409F2836D816461D4626
:1042A0004F2932D88318A02B02DDC0F1A006B6B288
:1042B0004B19502B02DDC1F15005ADB2C0B2C9B2ED
:1042C0008219D2B24B19DBB2013B013ADBB2D2B256
:1042D000FFF71CFF230A8DF804308DF805400122FA
:1042E00010210B48FEF7FAF80CE04FF0FF330222E2
:1042F00001A90848FEF76BFE013CA4B2002CF4D1E2
:10430000013DADB20DB13446F8E702B070BD00BF5B
:1043100000080140880A002000B583B000905023B7
:10432000A02200210846FFF7B3FF03B05DF804FBAD
:104330009F281ED838B515461C464F2905D8831826
:10434000A02B02DC0B19502B00DD38BDC0B2C9B266
:104350008218D2B20B19DBB2013B013ADBB2D2B206
:10436000FFF7D4FE04FB05F149000498FFF794FE23
:10437000EBE770470C480D490D4A002302E0D45882
:10438000C4500433C4188C42F9D30A4A0A4C00239F
:1043900001E013600432A242FBD3FDF7B3FB00F04F
:1043A00015F8FDF779FA704700000020C0090020D9
:1043B000BCF60008C0090020C00B0020FEE700008A
:1043C000014B1868704700BF1400002070B50D4EF7
:1043D0000D4D761BB61006D0002455F8043B013471
:1043E0009847A642F9D1094E094D06F06FFD761B9C
:1043F000B61006D0002455F8043B01349847A64275
:10440000F9D170BDB0F60008B0F60008B8F60008A3
:10441000B0F60008024B0146186800F003B800BF70
:10442000140000202DE9F04F01F10B05162D064672
:1044300083B025D8102900F2B88000F0F1FA1025D9
:1044400018224FF0020CB54F3A445368A2F108010C
:104450008B4200F0B7805A68D96822F003021A44F0
:104460009C683046E1608C60516803F1080441F0BB
:104470000101516000F0DAFA204603B0BDE8F08F88
:1044800035F0070500F19180A94200F28E8000F01E
:10449000C7FAB5F5FC7FC0F094816B0A00F08C8000
:1044A000042B00F26A81AB0903F1390C03F13804E3
:1044B0004FEACC00994F384443680838984206D1F7
:1044C0000CE0002980F22681DB68984206D05A6809
:1044D00022F00302511B0F29F3DDA4463C69DFF8EB
:1044E00040E274457AD0626822F00302531B0F2B1E
:1044F00000F37681002BC7E904EE80F26781B2F504
:10450000007F80F019810121D30852090B449140AA
:104510007A6857F833000A4307EBC3010839A060F3
:10452000E1607A6047F83340C46001214FEAAC0390
:104530009940914259D8114206D12CF0030C490000
:1045400011420CF1040CFAD007EBCC094846644642
:10455000D0F80C80404508D11CE1002B80F221816D
:10456000D8F80C80404500F01581D8F8042022F0DE
:104570000302531B0F2BF0DD08EB050145F001058D
:10458000C8F804503046D8E90264F460A66043F0ED
:104590000104C7E904114C60C1E902EE48F8023099
:1045A00000F044FA08F1080402E00C230024336010
:1045B000204603B0BDE8F08F4FF400704FF0400C80
:1045C0003F2477E7D3689A4208BF0CF1020C7FF4CE
:1045D00042AF3C69DFF848E1744584D101217A6833
:1045E0004FEAAC0399409142A5D9BC68636823F0B7
:1045F00003094D4503D8A9EB05030F2B7ADCDFF83F
:1046000024B1494BDBF800201B6801322B4404EB3A
:10461000090A00F02F8103F580530F3323F47F68DC
:1046200028F00F084146304600F01AFA411C0246B5
:1046300000F0EF80824500F2EA803C4B196841446B
:104640000846196000F04981DBF800100193013140
:104650001BBFA2EB0A0A5044CBF80020186012F0EE
:10466000070B00F01181CBF108010A44CBF5805112
:1046700090440831A1EB0801C1F30B0A51463046C2
:10468000009200F0EDF9421CDDE9002300F04B81BF
:10469000801A00EB0A08196848F001005144BC4236
:1046A000BA601960506000F02481B9F10F0F40F238
:1046B00022814FF0050E6068A9F10C0C2CF0070C5C
:1046C00000F0010040EA0C006060BCF10F0F04EB49
:1046D0000C00C0E901EE00F22E8114465068144B24
:1046E0001A688A4238BF1960124B1A688A4238BF6A
:1046F000196090E0621943F0010345F0010565601F
:104700003046BA600834536000F090F9204603B098
:10471000BDE8F08FD9681A44A2E600BF400400202B
:104720004804002048080020A80B0020780B002037
:10473000A00B0020A40B0020B2F5206F4FEA5223FB
:104740005FD3142B00F2B18003F15C01C9005B332D
:10475000781879580838884200F08F804B6823F029
:104760000303934202D989688842F7D1C8687A68FE
:10477000C4E902108460CC60D7E6142B59D9542BBD
:1047800000F29B802B0B03F16F0C03F16E044FEAD8
:10479000CC008FE60134A30700F108007FF4D8AE07
:1047A00053E0444642445368D8F80C1043F00103E8
:1047B000536054F8083F3046D9608B6000F036F9FA
:1047C000F6E64FEAD50C05F108023CE622445368B0
:1047D000304643F00103536000F028F90834E7E65F
:1047E000611945F00105656043F00105C7E9041151
:1047F0003046C1E902EE4D60A35000F017F90834CD
:10480000D6E6930903F13901C9003833A0E7BC4269
:104810005ED0BC68606820F003084545A8EB05033E
:1048200002D80F2B3FF766AF304600F0FFF80024A8
:10483000BEE603F15C0C03F15B044FEACC0039E601
:1048400059F808394B4540F095801CF0030F0CF1E6
:10485000FF3CF5D17B6823EA01037B604900994264
:104860003FF6C3AE11B9C0E6490004341942FBD08B
:10487000A44669E603F11008D4E601229B109A4091
:104880007B681A437A6073E702EB08014942C1F37F
:104890000B0A51463046009200F0E2F8431CDDE975
:1048A00000237FF4F5AEDA46F5E6542B26D8130B39
:1048B00003F16F01C9006E334AE7B3F5AA7F26D82A
:1048C000EB0B03F1780C03F177044FEACC00F1E530
:1048D000294B186840441860B6E6CAF30B0CBCF1CB
:1048E000000F7FF4B1AEBC68C84448F001006060BE
:1048F000F5E61446F3E60123536095E7B3F5AA7F86
:1049000024D8D30B03F17801C900773320E740F2B4
:104910005452934224D8AB0C03F17D0C03F17C0478
:104920004FEACC00C6E5ABF1080BD8444FF0000AC3
:10493000A8EB0208AFE604F108013046009303F04B
:104940009BF9BC68009B60681968C8E640F2545146
:104950008B420BD8930C03F17D01C9007C33F7E641
:104960004FF47E704FF07F0C7E24A3E54FF47E71F0
:104970007E23EDE67B6871E7780B0020830730B576
:1049800048D0541E002A3FD00346CAB201E0013C81
:104990003AD303F8012B9D07F9D1032C2DD9CDB2C1
:1049A00045EA05250F2C45EA054536D9A4F1100244
:1049B00022F00F0C03F1200EE6444FEA121C03F123
:1049C000100242E9045542E9025510327245F8D10D
:1049D0000CF1010214F00C0F03EB021204F00F0CA7
:1049E00013D0ACF1040323F003030433134442F85F
:1049F000045B9342FBD10CF003042CB1CAB21C44FB
:104A000003F8012B9C42FBD130BD64461346002CB9
:104A1000F4D1F9E703461446BFE71A46A446E0E797
:104A2000014803F055BA00BFB00B0020014803F065
:104A300051BA00BFB00B00200FB400B5074A83B0D5
:104A400004AB106853F8042B8168019300F0F2F86E
:104A500003B05DF804EB04B0704700BF1400002001
:104A6000002238B5064D044608462A60FDF72CF8AA
:104A7000431C00D038BD2B68002BFBD0236038BD11
:104A8000BC0B00202DE9F043694C0E46D4F80080A1
:104A9000174604461D4683B0B8F1000F03D0D8F87E
:104AA0003830002B77D0022F05D0012F00F2AC80D8
:104AB000002DC0F2A980636EDA0752D52146404628
:104AC00002F0AEFF216B41B104F14003994202D0E4
:104AD000404603F0D1F8002323630023B4F90CC04F
:104AE000A3611CF0800F636064D12CF44A6C2CF03D
:104AF000030C022FA4F80CC06AD001AB214640463B
:104B00006A4603F059FAA3891843A081002D2FD0DB
:104B1000002E2ED0D8F83830002B38D0009BC4E9B6
:104B20000465AB42B4F90C3026601CBF43F400634B
:104B3000A381012F04BF43F00103A3819AB213F0B4
:104B400008032CD0D1075DD500216D42A561656EAB
:104B5000A16015F0010527D00025284603B0BDE867
:104B6000F083A3899B05A9D4A06D03F0B1F9A5E753
:104B7000009D2846FFF74EFC0646002847D0A38933
:104B800043F08003A381D8F83830002BC6D14046CB
:104B900002F07AFFC2E7404602F076FF83E7A360A7
:104BA000656E15F00105D7D1930524D5284603B0CD
:104BB000BDE8F0834046216903F05EF8B4F90CC00B
:104BC000022F2CF44A6C2CF0030CA4F80CC094D1E6
:104BD00000250021012204F1430323602361636E59
:104BE0004CF0020CD807A4F80CC0A1606261DDD4BF
:104BF0001CF4007FDAD1A06D03F06CF9284603B0F5
:104C0000BDE8F083A560CBE74FF0FF35CEE7DDF8D8
:104C10000090A94504D04846FFF7FCFB064620B9A2
:104C20004FF0FF35B4F90CC0D3E74D46A7E700BFFE
:104C3000140000202DE9F04FD5B01C469146079195
:104C40000546099003F03CF902680E94104617924D
:104C500003F04CFE16901DB1AB6B002B00F01D82D3
:104C6000079A536EDD0740F12D81B2F90C2091B205
:104C70008F0409D4079B42F400529A8191B21A46DC
:104C80005B6E23F4005353660E0740F1C080079B10
:104C90001B69002B00F0BB8001F01A030A2B00F007
:104CA000C48000242BAB224698464D46CDE92944CA
:104CB0002893129400230024CDE914342B78CDE9F5
:104CC0001922CDE91B2218920B92002B00F08F8144
:104CD000AA4604E01AF8013F002B00F0BB80252B08
:104CE000F8D1BAEB050640F0B9809AF80030002BF5
:104CF00000F07D8100234FF0FF324FF02B0920247C
:104D00001F469AF8016008920AF1010A8DF8833073
:104D10000A930AF1010AA6F120035A2B00F2E1805E
:104D2000DFE813F00503DF00DF000003DF00DF0032
:104D3000DF00DE02DF00DF006A006E02DF005502E6
:104D40007802DF0073025B005B005B005B005B00CE
:104D50005B005B005B005B00DF00DF00DF00DF006B
:104D6000DF00DF00DF006C01DF00EA01C4016C013D
:104D70006C016C01DF00DF00DF00DF00D002DF002C
:104D8000DF002302DF00DF00DF00F801DF00920216
:104D9000DF00DF008707DF00DF00DF00DF00DF006C
:104DA000DF00DF00DF006C01DF00EA01C6016C01FB
:104DB0006C016C01B602C601BF01DF00C302DF0057
:104DC0005A022502A402BF01DF00F8017200840725
:104DD000DF00DF006507DF0072000022A6F130036C
:104DE0001AF8016B02EB820203EB4202A6F13003D8
:104DF000092BF5D90A928EE70E9B53F8042B002A53
:104E00000A920E93C0F2E0819AF8006081E7079D54
:104E10000998294601F0FCFC002841F04D83A9893E
:104E200001F01A030A2B7FF43CAF079AB2F90E3057
:104E3000002BFFF636AF536ED80702D4890541F137
:104E4000488123464A460799099855B0BDE8F04F76
:104E500001F09CBCBAEB050600F0C9802A9BC8E9AA
:104E6000005633442A93299B0133072B299305DCF1
:104E700008F108080B9B33440B9336E70799099810
:104E800028AA03F0D1FD80B90DF1AC08F2E707992B
:104E9000099828AA03F0C8FD002800F099800D9B0E
:104EA0001BB11946099802F0E7FE079A536ED9071D
:104EB00040F1E88093895B0601F10A830B9855B0B5
:104EC000BDE8F08F079BB3F90C20900591B23FF538
:104ED000CFAE1D46986D02F0FBFFB5F90C2091B2E4
:104EE000C6E6002E00F08380012300228DF8EC60DE
:104EF00006933BAD8DF883200C930D9208920F9290
:104F00001392109217F0020302D006990231069113
:104F100017F0840B07D10A990698A1EB0009B9F1A3
:104F2000000F00F390832A9C82B10122C8F804206C
:104F3000299A013401320DF18301072A2A9429921A
:104F4000C8F8001000F3D88308F108087BB10223E9
:104F5000C8F80430299B0234013321AA072B2A9474
:104F60002993C8F8002000F3D58308F10808BBF1A5
:104F7000800F00F08882089B0C9AA3EB020BBBF118
:104F8000000F00F3CB82FB0500F11F820C9BC8F8D9
:104F900000501C44C8F80430299B2A940133072B85
:104FA000299300F3448308F10808780705D50A9B84
:104FB000069A9D1A002D00F3B983DDE90A230699AC
:104FC0008A42ACBF9B185B180B93002C7FF45FAF39
:104FD000002329930D9B1BB10D99099802F04CFEFB
:104FE00055460DF1AC082B78002B7FF471AE2A9B4F
:104FF000002B41F010820023299356E70E9B0733C4
:1050000023F00702F2E80234CDE91434DDE9143468
:1050100024F00044994618460E9221464FF0FF3284
:10502000AB4BFCF7F3F8002840F0188548462146C2
:105030004FF0FF32A64BFCF7CBF8002840F00E856E
:10504000DDE9140100220023FCF7B8F8002840F045
:1050500065879DF88320002103209E4D9E4B27F0FD
:1050600080070D910690472EC8BF1D4608910C90F1
:105070000F9113911091002A3FF444AF069B013326
:1050800006933FE7079B9B899A053FF514AF079C62
:10509000A06D02F01FFFA3890DE7099802F0F4FC50
:1050A000DEE59AF8006047F0200732E647F0100787
:1050B000BA060E9B40F16E84073323F007031A46AD
:1050C0005B6852F8084B99460E92002BC0F26F8431
:1050D000089B013300F0FB8254EA090327F0800BA0
:1050E00040F0F682089B002B40F0F7825F460023D9
:1050F00054AD08930C933DE1012000220E9B0690D5
:1051000053F8041B3BAD8DF883208DF8EC100E9303
:105110000C90F2E64FF000090E9C089B54F8045BDB
:105120008DF88390002D00F0A1855A1C00F0A58613
:105130001A464946284602F06FFF0D90002801F0FC
:1051400050810D9B9DF883205B1B0C9323EAE37336
:10515000CDF820900E940693CDF83490CDF83C9085
:10516000CDF84C90CDF8409085E747F0100717F048
:10517000200900F0F2830E9B073323F00703D3F8D6
:10518000049053F8084B0E93002327F4806B002201
:105190008DF88320089A511C00F0D48054EA09014C
:1051A0002BF0800740F0CD80002A40F00486002BD1
:1051B0009DD11BF001030C9300F0308430230DF2DD
:1051C0004F158DF84F31D5E00A9B5B420A939AF850
:1051D000006047F004079CE5BD0600F1FD84FC0675
:1051E00000F1EE85780600F1B286B90540F1E88558
:1051F0000E9B0B9953F8042B554611700E93F2E653
:105200009AF800608DF8839083E59AF8006047F083
:1052100080077EE5524612F8016B2A2E01F08D823E
:10522000A6F13003092B924698BF002201F2E580D7
:105230001AF8016B02EB820203EB4202A6F1300383
:10524000092BF5D9089266E547F0100B1BF02009F1
:1052500000F091830E9B073323F007031A4652F8A0
:10526000084BD3F804900E92012390E73022782661
:105270000E9B8DF8842053F8044B184A0E934FF080
:105280000009022347F0020B8DF8856018927EE733
:105290009AF80060682E03BF9AF8016047F400771F
:1052A0000AF1010A47F0400733E59AF800606C2ED6
:1052B00003BF9AF8016047F020070AF1010A47F09E
:1052C000100726E59AF8006047F0080721E500BFBF
:1052D000FFFFEF7F2CF2000830F200083CF20008DC
:1052E000099E304602F0ECFD436818461B9303F01C
:1052F000FDFA034630461C931E4602F0E1FD83682A
:105300001993002E3FF480AD199B002B3FF47CAD28
:10531000199B1B78002B3FF477AD9AF8006047F497
:105320008067F6E49AF8006047F00107F1E49DF821
:105330008330002B7FF468AD9AF800608DF88340CD
:10534000E7E4BB46012B00F0C381022B54AD1FD113
:10535000189A04F00F03D35C240944EA09744FEA55
:10536000191905F8013D54EA0903F2D15F4654AB1F
:105370005B1B0C93089A0C9900238A42B8BF0A461B
:105380000D9306920F939DF883201393109372E66A
:1053900004F00703E40844EA49744FEAD9093033BA
:1053A00054EA09012A4605F8013DF1D11BF0010F2D
:1053B000DCD0302BDAD03023023A05F8013C54AB74
:1053C0009B1A5F4615460C93D4E7652E40F3E9809F
:1053D000DDE9140100220023FBF7E6FE002800F0BF
:1053E000E1810123C8F80430299BC04A013301340C
:1053F000072B2A942993C8F8002000F3BF8408F1F2
:105400000808229B129A934280F2DC82169B179A1C
:105410001C44C8E90023299B2A940133072B2993B4
:1054200000F3178408F10808129B5D1E002D7FF71A
:10543000BCAD102D41F35D81DFF8B49222464946A0
:105440001026B946299B0F46DDF824B0079C05E0DD
:1054500008F10808103D102D40F39D8401331032EF
:10546000072BC8E90076CDE92932F1DD21465846FF
:1054700028AA03F0D9FA00287FF411ADDDE929321A
:105480000DF1AC08E6E70A9B069AA3EB020BBBF111
:10549000000F7FF770ADBBF1100F41F35280DFF8C2
:1054A000509241462046A8464C461023299A079D13
:1054B000DDF8249006E0ABF1100BBBF1100F01F109
:1054C000080119DD01321030072AC1E90043CDE996
:1054D0002920F0DD2946484628AA03F0A5FA00282D
:1054E0007FF4DDACDDE92920ABF1100BBBF1100F2F
:1054F0004FF010032BA9E5DC4546A146884604463B
:1055000001325C44072ACDE92924C8F80090C8F884
:1055100004B000F3918308F108082CE5BBF1100FEB
:1055200040F3E384DFF8C89141462046A8464C4644
:105530001023299A079DDDF8249006E0ABF1100BAB
:10554000BBF1100F01F1080119DD01321030072AFB
:10555000C1E90043CDE92920F0DD2946484628AAC3
:1055600003F062FA00287FF49AACDDE92920ABF160
:10557000100BBBF1100F4FF010032BA9E5DC4546D3
:10558000A1468846044601325C44072ACDE9292415
:10559000C8F80090C8F804B000F3D28108F10808F8
:1055A000F1E4129B012B40F382810123299E0134F7
:1055B0001E44072EC8F800502A94C8F804302996D3
:1055C00000F36C8308F10808169B0136179A1C44F7
:1055D000072EC8E90023CDE9296400F36C8308F1A4
:1055E00008080022DDE914010023FBF7DDFD002897
:1055F00040F07A81129B0136013B01351C44072E95
:10560000C8F800502996C8F804302A9400F35F8146
:1056100008F108081A9B01361C44C8F80430072E0C
:1056200024ABCDE92964C8F800307FF7BCAC0799FA
:10563000099828AA03F0F8F900287FF430AC2A9CD6
:105640000DF1AC08B1E4B9F1100F40F3C686DDE905
:1056500029214046CDE91D36B84610244F46079E05
:10566000A946099D04E0103F102F00F1080016DD47
:105670000132204B1031072AC0E90034CDE929213D
:10568000F1DD3146284628AA03F0CEF900287FF440
:1056900006ACDDE92921103F102F2BA8E8DC4D4690
:1056A000DDE91D36B9464746804609EB0104013263
:1056B0001049072ACDE92924C8F80490C8F8001039
:1056C00000F340839DF8832008F108082CE4BB46D2
:1056D0000A2C79F1000380F0FB82012330345F460D
:1056E0008DF84F410C930DF24F1543E66CF2000814
:1056F00080F2000870F200080799099828AA1D9303
:1057000003F092F900287FF4CAAB2A9C1D9B0DF18F
:10571000AC081BE40799099828AA03F085F900282A
:105720007FF4BDAB2A9C0DF1AC0820E4102D40F3B2
:10573000BE861026299B099FDDF81C9004E0103DD1
:10574000102D08F1080817DD0133BA4A1034072B71
:10575000C8E90026CDE92934F1DD4946384628AAB2
:1057600003F062F900287FF49AABDDE92934103D9B
:10577000102D0DF1AC08E7DC0133AE4A2C44072BA9
:10578000CDE92934C8F80450C8F800207FF715ACDB
:105790000799099828AA03F047F900287FF47FABFE
:1057A0002A9C0AE42299002940F31081DDF84090F8
:1057B000129B9945A8BF9946B9F1000F0BDD299BB3
:1057C0004C440133072BC8E900592A94299300F36C
:1057D000818508F10808109EB9F1000FA8BFA6EB5B
:1057E0000906002E00F3F582DDF840B07905AB44E0
:1057F00000F1AC84229B129A934202DBFA0740F13B
:105800009283169A17991444C8E90012299A2A9487
:105810000132072A299200F3A88508F10808129A94
:10582000AE18A6EB0B06D51AAE42A8BF2E46002E28
:105830000DDD299B34440133072BC8F800B0C8F8AC
:1058400004602A94299300F3FC8508F10808002ECF
:10585000A8BFAD1B002D7FF7A8AB102D40F34987E3
:10586000DFF8D491224649461026B946299B0F46B7
:10587000DDF824B0079C05E008F10808103D102D64
:1058800040F3898201331032072BC8E90076CDE955
:105890002932F1DD2146584628AA03F0C5F8002830
:1058A0007FF4FDAADDE929320DF1AC08E6E7FE0739
:1058B0003FF57BAE0123299E01341E44072EC8F814
:1058C00000502A94C8F8043029967FF7A1AE0799B2
:1058D000099828AA03F0A8F800287FF4E0AADDE9D7
:1058E00029640DF1AC0895E6129B5D1E002D7FF733
:1058F00091AE102D40F31987224608974FF0100BF8
:10590000DFF83491099C079F05E008F10808103D75
:10591000102D40F3C78201361032072EC8E9009BD4
:10592000CDE92962F1DD3946204628AA03F07CF84A
:1059300000287FF4B4AADDE929620DF1AC08E6E79E
:105940000799099828AA03F06FF800287FF4A7AAFE
:105950002A9C0DF1AC08FFF716BB17F0100377D1A6
:1059600017F0400200F0AC820E9A994652F8044BB0
:105970000E92A4B208E41BF010030E9A54D11BF04F
:1059800040014DD052F8044B99460E920123A4B227
:10599000FFF7FDBB53F8044B0E93FB0653D47D0673
:1059A0004ED544F3C0394B4624B2FFF78EBB2D23AE
:1059B00064428DF88330BB464FF0010369EB49091F
:1059C000FFF7E8BBF8077FF5F0AA1FE50123C8F849
:1059D0000430299B194A01330134072B2A94299357
:1059E000C8F8002000F3688408F10808002940F096
:1059F0002582129A07F0010313433FF4D6AA169B9F
:105A00001799E218C8E90013299B2A920133072B42
:105A1000299300F3508308F1080820E254ADA9E46B
:105A20001BF4007940F0A08252F8044B01230E923F
:105A3000FFF7ADBB70F2000880F200086CF20008BE
:105A4000B80500F179824FEAE4794B46FFF73DBB98
:105A50000E9B53F8044B0E93FFF796BBDDE9140140
:105A600002460B46FBF7D2FB002840F0F785612E7B
:105A700000F06C85412E00F07F82089B013300F01E
:105A8000948526F02003472B069300F07B85DDE903
:105A9000141247F480730F931346002BC0F2F48561
:105AA0000C9300238B461D930D93069B462B00F011
:105AB0002B84452B00F0148508990C9B0191022141
:105AC000009126A9049123A9039122A95A46099875
:105AD000029100F0ADFF069B0546472B40F044863F
